:020000040800F2
:10000000881C002001010008CB230008ED1E000819
:10001000C92300087D0D00082D27000800000000FE
:10002000000000000000000000000000A9240008FB
:100030008D0D000800000000CD230008AB2400084F
:100040001B0100081B0100081B0100081B01000820
:100050001B0100081B0100081B0100081B01000810
:100060001B0100081B0100081B0100081B01000800
:100070001B010008810D00081B0100081B0100087E
:100080001B0100081B0100081B0100081B010008E0
:100090001B0100081B0100081B0100081B010008D0
:1000A0001B0100081B0100081B0100081B010008C0
:1000B0001B0100081B0100081B0100081B010008B0
:1000C0001B0100081B0100081B0100081B010008A0
:1000D0001B010008212700081B0100081B01000864
:1000E0001B0100081B0100081B010008DFF80CD0F1
:1000F00000F0ECFB0048004799580008881C0020DD
:100100000648804706480047FEE7FEE7FEE7FEE7B1
:10011000FEE7FEE7FEE7FEE7FEE7FEE70D25000847
:10012000ED000008202A04DB203A21FA02F0002129
:10013000704721FA02F3D040C2F1200291400843F7
:10014000194670470048704754AD000810B5044682
:10015000FFF7F8FF0068005D00F0010010BDD2B2AB
:1001600001E000F8012B491EFBD270470022F6E7A0
:1001700010B513460A4604461946FFF7F0FF20461D
:1001800010BD421E12F8013F002BFBD111F8013BBC
:1001900002F8013B002BF9D17047421C10F8011BFB
:1001A0000029FBD1801A7047034611F8012B00F893
:1001B000012B002AF9D1184670472DE9FE4F8046E1
:1001C00081EA0300C00F0C46009021F0004123F0AB
:1001D0000045B8EB0200A94105D2404621469046B1
:1001E0001C460B46024623F00040104347D0270D23
:1001F000C7F30A00C3F30A510290401A0190402845
:100200006BDAC3F3130040F4801B0098924620B1D0
:100210000023D2EB030A63EB0B0B01985946C0F1A4
:100220004002504600F0FDF906460D46504659463C
:10023000019A00F005FA10EB08006141002487EAFA
:10024000115284EAE7731A4340D0009A62B3019ACC
:10025000012A4FEA075215DC001B61EB02014FF047
:10026000004202EA0752CDE90042001C41F580112C
:1002700032462B4600F053FA03B0BDE8F08F4046FB
:100280002146F9E7001B61EB0201001C41F58013D8
:1002900000185B412018A2F5001747EB030140EA64
:1002A000D570B6196D4111E06D084FEA360645EA82
:1002B000C0754FEA0752001B61EB0201001C41F5BB
:1002C000801149084FEA30000019514132462B464F
:1002D00003B0BDE8F04F00F013BA009801224000CF
:1002E0000023D0EB020263EBE073009821464FEA53
:1002F000E074B8EB000061EB0401E9E783F0004330
:100300005BE781F0004158E72DE9FE4F81EA0304E5
:1003100004F0004421F0004100944FF0000B23F062
:10032000004350EA01045ED052EA03045BD0C3F3F9
:100330000A54C1F30A552C44A4F2F3340194A0FBEF
:100340000254C1F3130141F48011C3F3130343F4C6
:10035000801301FB024400FB034E840A970A44EA1F
:10036000815447EA8357A4FB076802958D0A05FB71
:1003700007854FEA932C04FB0C542705029D4FEA96
:10038000065847EA1637B5EB08056EEB070C870EE3
:10039000920E47EA811742EA8312A7FB0201B6EBED
:1003A0000B0164EB00042B0D43EA0C335E1844EBA5
:1003B0001C50DA465146E7FB0201C5F313044FEA2D
:1003C0000B3343EA14534FEA0432019C43EA060319
:1003D000A4F10C040294009CCDE900B400F09FF954
:1003E00003B0BDE8F08F00200146F9E72DE9F04D9C
:1003F00081EA030404F0004B21F0004514464FF05D
:10040000000A23F0004150EA050220D054EA01021C
:100410001DD0C5F30A570246C5F31303C1F31300F9
:10042000C1F30A5640F4801543F48013A7EB060885
:10043000101BD64608F2FD3873EB050002D308F115
:10044000010801E092185B41B8F1000F03DA0020C7
:100450000146BDE8F08D00204FF480110646844629
:100460000EE0171B73EB050705D3121B63EB0503A7
:1004700006434CEA010C49084FEA300092185B41F0
:1004800050EA0107EDD152EA030012D082EA0400DB
:1004900083EA0501084305D0101BAB4106D20122B7
:1004A000002306E000224FF0004302E06FF001025B
:1004B00053101AEB06004CEB085110EB0A0041EB0D
:1004C0000B01BDE8F04D00F01BB970B521F0004301
:1004D00003430CD0C1F30A550024D5EB040564EBAB
:1004E0000403D617AD1AB34102DB0020014670BDEC
:1004F000201841EB025170BD0EB5C10F80EAE070CB
:100500000844CA07002140F233438DE80E000A4632
:100510000B4600F004F903B000BD0EB540F23341C4
:1005200002910021CDE900110A460B4600F0F7F8D0
:1005300003B000BD30B5041E71F1000404DB4FF0C0
:100540000044404264EB0101141E73F1000405DB1A
:100550001C464FF00043524263EB04038B4208BF3A
:10056000824230BD30B5041E71F1000404DB4FF04F
:100570000044404264EB0101141E73F1000405DBEA
:100580001C464FF00043524263EB0403994208BFFC
:10059000904230BD30B50B46014600202022012498
:1005A00009E021FA02F59D4205D303FA02F5491B41
:1005B00004FA02F52844151EA2F10102F1DC30BD57
:1005C0002DE9F05F0546002092469B468846064688
:1005D000814640241BE02846414647462246FFF715
:1005E000A1FD53465A46C01A914110D311461846F0
:1005F000224600F016F82D1A67EB01084F462246F6
:100600000120002100F00DF817EB00094E41201EDB
:10061000A4F10104DFDC484631462A464346BDE8E2
:10062000F09F202A04DB203A00FA02F100207047F4
:100630009140C2F1200320FA03F319439040704720
:10064000202A06DBCB17203A41FA02F043EAE07396
:1006500006E041FA02F3D040C2F120029140084383
:10066000194670470FB4002300B589B00CA900915A
:100670000B996FF00042CB601E4B06931E4B079305
:100680000423CDE901321D4A089202466B46002040
:1006900000F0AEF909B05DF814FB70B586B00646FF
:1006A0004FF0FF300091CDE90101002015460C46C6
:1006B00004903246694604A8FFF7D4FF0246049826
:1006C000211825B108B1084600E0204628600498AA
:1006D00000280DD0002A02DD0098884208D0081BAF
:1006E0000094CDE901043246694604A8FFF7BAFF39
:1006F00006B070BD290C0008470C00084D01000829
:1007000010B5141E73F1000408DA401C41F1000119
:1007100092185B411A4301D120F0010010BD2DE970
:10072000F04D92469B4611B1B1FA81F202E0B0FA67
:1007300080F220329046FFF774FF04460F4640EAED
:100740000A0041EA0B0153465A46084313D01146AA
:1007500053EA010019D0C8F140025046FFF7E2FC0D
:1007600005460E46504659464246FFF75AFF084393
:1007700005D0012004E020463946BDE8F08D002078
:10078000054346EAE0762C4337430A986305E40ABA
:10079000A0EB08000022FD0A44EA47540A3002D5C3
:1007A00000200146E9E7010510196941DDE9084526
:1007B00000196941BDE8F04DA2E72DE9F04D002395
:1007C0001A461B1A8A4103DB00200146BDE8F08D62
:1007D000C1F30A52C1F3130141F480154FF0000B2D
:1007E000D10702D100186D41521E0027044640F285
:1007F000FF11384601EB620A3E4680460246002061
:100800004FF48011FFF78EFCC2197141BB1846EB03
:100810000100B4EB030C75EB000C04D3E41A65EB98
:10082000000517460E46241908F101006D41804667
:100830003428E3DDF91946EB0600091BA84103D271
:100840004FF0FF32134601E0002213461BEB070076
:1008500046EB0A51BDE8F04DFFF752BF70B5C1F34A
:100860000A5201F000450024C1F3130140F2FF33A6
:1008700041F480119A4201DA002070BD40F2334306
:100880009A42A2F2334203DC5242FFF74BFC00E0F3
:1008900090402C43F1D0404270BDC1F30A52C1F3E5
:1008A000130140F2FF3341F480119A4202DA002032
:1008B0000146704740F233439A42A2F2334202DCCF
:1008C0005242FFF72FBCFFF7ACBE0000064C074DAD
:1008D00006E0E06840F0010394E807009847103410
:1008E000AC42F6D3FFF706FC7CAF00089CAF0008D3
:1008F0002DE9FF4F087881B09946FF2805D0491CA3
:100900002D2804D00024002308E000230BE001245C
:10091000F9E703EB830300EB4303491C0878FF2846
:10092000F7D104B15B4200200090147801462D2CD1
:1009300001D02B2C04D1521C2D2C12D00024009459
:1009400000251678FF2E0ED00A24A0FB04C801FB58
:100950000481002700FB0711521C16EB0C006941B3
:10096000EFE70124EBE7994450EA01020ED000249E
:10097000AA4D2646DFF8A88200F076F982468B461B
:10098000B9F1000009DAC9F100071BE00198002164
:10099000C0E9001105B0BDE8F08F074612E0F80786
:1009A00007D022462B4630464146FFF7ADFC0646AF
:1009B000884622462B4610461946FFF7A5FC0446FA
:1009C0000D467F10002FEAD1B9F1000F32464346A1
:1009D0005046594602DAFFF709FD01E0FFF794FCA3
:1009E000009A0AB181F00041019AC2E90001D1E701
:1009F0002DE9FF4F1F468DB0D7E901464FF0FF3874
:100A00002E2045464FF000090B90B9696D1C0E98D9
:100A10008847396A824688470028F6D1BAF1FF3FF5
:100A20000AD024F4D064002E11DDBAF12B0F08D0C7
:100A3000BAF12D0F0BD102E0404611B0ABE744F400
:100A40008064B9696D1C0E9888478246761E694697
:100A5000600501D52D2000E02B208DF8000001F16C
:100A6000010B0DF1200809E0B9696D1C0E9888474B
:100A700082460F9844F40074761E0560002E02DD55
:100A8000BAF1300FF0D00B998A453ED144F0800482
:100A900006E00F99681CA9F1010944F4007408608C
:100AA000B9696D1C761E0E98884782463028F0D0B2
:100AB0002BE00B998A4505D1200603D444F080042D
:100AC000761E18E0504602F0C1FB08B30DF1130189
:100AD000761E44F400748B4508D2AAF130000BF85E
:100AE000010B200607D5A9F1010003E0200602D47E
:100AF00009F101008146A00502D50F99681C086024
:100B0000B9696D1C0E9888478246002ED1DC53E0EF
:100B1000002E51DDBAF1650F02D0BAF1450F4BD16D
:100B2000A00549D5B9696D1C24F44074761E0E9851
:100B300088478246002E0CDD2B2804D0BAF12D0FF9
:100B400007D144F48074B9696D1C0E9888478246B9
:100B5000761EE00501D52D2100E02B2108F8011BB0
:100B6000CDF82C8021E00DF12901761E44F40074AB
:100B700088450CD2AAF1300010F0FF0088F8000080
:100B800002D10B99884509D908F1010806E0E00572
:100B900001D5244801E042F20F708146B9696D1C0D
:100BA0000E98884782460F980560002E04DD504657
:100BB00002F04CFB0028D6D1F9690E988847FF2037
:100BC0008BF8000088F800000020069007904B4644
:100BD0006A4608A906A8FFF78BFEA00502D46FF0AD
:100BE00001002AE714F0240F0AD0E00714D1DDE950
:100BF00006123868031D3B600068C0E900120BE074
:100C0000DDE9060100F03CF80146E00704D1386850
:100C1000021D3A600068016028460EE7000024408B
:100C20000000F03FF1D8FFFF426842B1016811F8BF
:100C3000013B23B1521EC0E9001218467047012142
:100C4000C160881E704742685AB1C368016843B9E1
:100C500083688B4205D0491E521CC0E90012002057
:100C600070474FF0FF3070470EB540F233420292AA
:100C70000022CDE900221346FFF751FD03B000BD6D
:100C800001F0004330B421F0004150EA010206D0E7
:100C90000A0DA2F56072C1F31301002A02DC30BC18
:100CA00000207047440F44EAC104C100E01830BC82
:100CB00000EBC250AFF300800029A8BF7047401C72
:100CC000490008BF20F00100704710B4B0FA80FC62
:100CD00000FA0CF050EA010404BF10BC704749B19F
:100CE000CCF1200421FA04F411FA0CF118BF01210F
:100CF00021430843A3EB0C01CB1D4FEA00614FEAEF
:100D0000102042BF002010BC704700EBC3501044BD
:100D10000029A4BF10BC7047401C490008BF20F048
:100D2000010010BC704770B58C1810F8015B15F00D
:100D3000070301D110F8013B2A1106D110F8012B4D
:100D400003E010F8016B01F8016B5B1EF9D12B0772
:100D500005D40023521E0DD401F8013BFAE710F828
:100D6000013BCB1A921C03E013F8015B01F8015B15
:100D7000521EF9D5A142D8D3002070BDFEE7000075
:100D8000014800F075B80000380A0020704772B6BC
:100D9000FEE710B590F821100022022905D00421A9
:100DA000816380F82020012010BD01680B6823F0CA
:100DB0000E030B6001680B6823F001030B6090F8D1
:100DC0004030C46B012101FA03F3636080F8211005
:100DD00080F82020104610BD10B590F82110002496
:100DE000022903D00421816301243DE001680A68DF
:100DF00022F00E020A6001680A6822F001020A600D
:100E00001A4A0168914201D1012121E0174A1432A6
:100E1000914201D110211BE0144A2832914201D1A4
:100E2000891515E0114A3C32914201D189140FE035
:100E30000E4A5032914202D14FF4803108E00B4A01
:100E40006432914202D14FF4801101E04FF0807181
:100E5000064A083A5160012180F82110002180F8EB
:100E60002010416B01B18847204610BD08000240A8
:100E70002DE9F05FC16B0C6801680B68D0F840C0C9
:100E8000042202FA0CF2494DDFF824A1494E4A4FE0
:100E9000DFF828B1DFF828E122422CD05A072AD502
:100EA0000A68920603D40A6822F004020A60016804
:100EB000A94201D1042219E0514501D1402215E097
:100EC000B14202D14FF4806210E0B94202D14FF436
:100ED00080420BE0594502D14FF4802206E0714573
:100EE00002D14FF4800201E04FF080622F490839AF
:100EF0004A60C16A3BE04FF0020808FA0CF818EAB1
:100F0000040F4FF000094FF0010235D05FEA8378FB
:100F100032D50B689B0605D40B6823F00A030B60DF
:100F200080F821200168A94201D1022219E051452F
:100F300001D1202215E0B14202D14FF4007210E03D
:100F4000B94202D14FF400520BE0594502D14FF49F
:100F5000003206E0714502D14FF4001201E04FF07B
:100F60000072124908394A6080F82090816A00298D
:100F70001AD0BDE8F05F0847082505FA0CF52542B0
:100F800012D01B0710D50B6823F00E030B6090F8EE
:100F90004010C36B02FA01F15960826380F821208E
:100FA00080F82090016BE2E7BDE8F09F0800024066
:100FB0001C00024030000240440002405800024041
:100FC0006C00024030B528B308C8134914221944F4
:100FD000B1FBF2F18900C1631049816302214177BD
:100FE0001A6843F6F0718A43D0E900142143D0E92E
:100FF00002452C4321430469214344692143846908
:101000002143114319600021416301224277017796
:10101000084630BD012030BDF8FFFDBF0000024092
:1010200070B5044600F008F90546601C02D004487B
:101030000078044400F000F9401BA042FAD370BDD0
:10104000E80100202DE9F84FDFF8B891002409F1FC
:10105000040A0AF1040B23460F270BF1040EC9E022
:101060000125A5402A40AA427DD1674ED1F804C08F
:10107000ACEB0608B44532D014DCBCF1030F3AD017
:1010800009DCBCF1000F2AD0BCF1010F1CD0BCF16F
:10109000020F31D11DE0BCF1110F17D0BCF1120FBE
:1010A0002AD119E0B8F5881F19D006DCB8F5803FC1
:1010B00015D0B8F5801F1FD111E0B8F5001F0ED074
:1010C000B8F5041F18D10AE0CB6815E0CB681B1DEA
:1010D00012E0CB6808330FE0CB680C330CE08B6870
:1010E0002BB1012B4FF0080303D0456104E004232A
:1010F00002E0056100E00023FF2A01D8064601E076
:1011000000F104064FEA840501D9A5F12005D6F8BF
:10111000008007FA05FC28EA0C0803FA05F548EAFE
:101120000508C6F800804D68ED0062D5374DAE6900
:1011300046F00106AE61AD6924F0030605F0010535
:101140000095334D06EB050CDCF80850A607360F6A
:1011500007FA06F825EA0805DFF8B880404503D10C
:101160004FF0000817E044E0DFF8AC80404502D1C2
:101170004FF001080FE0DFF8A480404502D14FF0A6
:10118000020808E0DFF89880404502D14FF00308DC
:1011900001E04FF0040808FA06F848EA0508CCF820
:1011A00008804D68D9F80060ED034D4601D516431F
:1011B00000E096432E604D68DAF80060AD035546B6
:1011C00001D5164300E096432E604D68DBF80060C1
:1011D000ED025D4601D5164300E096432E604D6852
:1011E000DEF80060AD02754601D5164300E0964377
:1011F0002E60641C0D682A46E5407FF431AFBDE8DF
:10120000F88F00000004014000001110001002409F
:101210000000014000080140000C014000100140A6
:10122000001401408068084000D0012070470AB1D6
:10123000016170470904FBE70148806870470000BE
:10124000E8010020024881680278114481607047FB
:10125000E8010020074810B5016841F01001016065
:10126000032000F075F80F2000F006F800F024F8D5
:10127000002010BD0020024070B50D4D04464FF413
:101280007A712878B1FBF0F00A490968B1FBF0F0F7
:1012900000F041FC48B9102C07D200222146501E14
:1012A00000F036F800206C6070BD012070BD0000B9
:1012B000E8010020F40100200C4808B5816941F0E4
:1012C00001018161816901F001010091C16941F071
:1012D0008051C161C06900F08050009004484168AD
:1012E00021F0E06141F00071416008BD0010024052
:1012F00000000140002809DB00F01F02012191409D
:101300004009800000F1E020C0F8001170470000A3
:10131000F0B40E4B1B680C46C3F30223C3F1070560
:10132000042D00D90425191D072901D2002300E04E
:10133000DB1E012606FA05F1491E214099409E4018
:10134000761E16403143F0BC01F02ABA0CED00E0E5
:10135000064900F0070208684FF6FF03184040EA0C
:101360000220034A10430860704700000CED00E0C3
:101370000000FA052DE9F0470F46050061D0434E05
:10138000306800F00700B84209D2306820F007004A
:1013900038433060306800F00700B84251D1286807
:1013A0003B4C810712D5400703D5606840F4E060EC
:1013B00060602878000703D5606840F46050606082
:1013C0006068A96820F0F000084360602878C007D2
:1013D00028D06868012810D02168022810D0890719
:1013E00000292EDA616821F0030101436160FFF7F3
:1013F00023FF804641F288390DE021688903EFE739
:101400008901EDE7FFF718FFA0EB0801494502D974
:101410000320BDE8F0876068696800F00C00B0EB5D
:10142000810FEFD1306800F00700B8420BD9306867
:1014300020F0070038433060306800F00700B84201
:1014400001D00120E5E72878400705D56068E96804
:1014500020F4E060084360602878000706D56068E3
:10146000296920F4605040EAC100606000F038F85B
:101470006168084AC1F30311515CC840064908601D
:1014800006480068FFF7F8FE0020C2E7002002408F
:10149000001002403CA10008F4010020EC010020F3
:1014A0000448054900684968044AC1F30221515CB7
:1014B000C8407047F4010020001002404CA1000811
:1014C0000448054900684968044AC1F3C221515CD7
:1014D000C8407047F4010020001002404CA10008F1
:1014E00012A185B00FC98DE80F0014A0144A00683E
:1014F00004905168134801F00C03042B10D0082B02
:101500000ED1C1F38343C9031DF803000AD5516806
:1015100004AAC1F34041515C0A4A5043B0FBF1F0C8
:1015200005B0704708494843FAE700000203040584
:10153000060708090A0B0C0D0E0F1010010200001F
:101540000010024000127A0000093D002DE9F84F1A
:10155000040070D02078C04DC00749D06868C0F33F
:101560008100012807D06868C0F38100022809D1F2
:101570006868C00306D52868800339D560680028EC
:10158000E7D035E06068B0F5803F0BD010B1B0F522
:10159000A02F11D0286820F480302860286820F41B
:1015A000802002E0286840F480302860606890B1B4
:1015B000FFF742FE06460AE0286840F480202860D3
:1015C000F0E700BFFFF738FE801B642873D8286857
:1015D0008003F7D50CE0FFF72FFE064605E000BFBD
:1015E000FFF72AFE801B6428F0D828688003F7D410
:1015F00020789A4E80074FF001094FF0000839D546
:10160000686810F00C0F07D06868C0F381000228EA
:1016100009D16868C00306D42868800714D52069FA
:10162000012808D110E02069B0B1C6F80090FFF79A
:1016300003FE074605E00AE1FFF7FEFDC01B022896
:10164000C4D828688007F7D52868616920F0F800B9
:1016500040EAC10028600DE0C6F80080FFF7ECFD0D
:10166000074604E0FFF7E8FDC01B022823D82868DE
:101670008007F7D4207800072CD57948A169D9B123
:10168000C0F80090FFF7D8FD074604E0FFF7D4FD4F
:10169000C01B02280FD8686A8007F7D571484FF43D
:1016A000FA510068B0FBF1F0009000BF0098411EB5
:1016B0000091FAD20EE080E0C0F80080FFF7BCFD98
:1016C000074604E0FFF7B8FDC01B022875D8686A1A
:1016D0008007F7D42078400760D5E8690027C0006C
:1016E00008D4E86940F08050E861E869012700F01B
:1016F000805000905C480168C90513D40168834696
:1017000041F480710160FFF797FD824606E000BF5B
:10171000FFF792FDA0EB0A0064284ED8DBF800002A
:10172000C005F5D5E06801280AD008B1052813D016
:10173000286A20F001002862286A20F0040002E0F4
:10174000286A40F001002862E06841F2883B98B1C5
:10175000FFF772FD82460BE0286A40F00400286221
:10176000EEE700BFFFF768FDA0EB0A0159455AD824
:10177000286A8007F6D50CE0FFF75EFD824605E09B
:10178000FFF75AFDA0EB0A0159454CD8286A80079B
:10179000F6D41FB1E86920F08050E861E06988B3B1
:1017A0006968C1F38101022944D00228C6F860802B
:1017B00004D0FFF741FD044638E034E0FFF73CFD7C
:1017C000074604E0FFF738FDC01B02282BD8286825
:1017D0008001F7D4206AB0F5803F05D16868A16820
:1017E00020F4003008436860D4E9080108436968C0
:1017F00021F4741108436860C6F86090FFF71CFD7F
:10180000044606E025E000BFFFF716FD001B022896
:1018100009D828688001F7D51BE000BFFFF70CFD51
:10182000001B022802D90320BDE8F88F2868800138
:10183000F4D40EE00128F7D06868226A00F4803101
:10184000914204D1616A00F47010884201D00120F5
:10185000EAE70020E8E700000010024000004242F2
:1018600080044242F40100200070004070B5040082
:1018700009D0606A002540B125616561A56294F8D0
:10188000510040B10CE0012070BD6068B0F5827F6E
:10189000F4D0E561F2E784F85050204600F040F8BB
:1018A000022084F851002068016821F040010160A5
:1018B000A088218900F4827001F404410843A189C1
:1018C00001F400610843217C01F002010843217DFD
:1018D00001F001010843218B01F400710843217FCD
:1018E00001F03801084394F8201001F0800108430A
:1018F000218D01F40051084321680860A06904218A
:1019000001EA1040216848602068C16921F4006143
:10191000C1616565012084F85100002070BD0000A0
:1019200070B586B000250646009501950295039591
:1019300000681A4988422ED11949886940F48050BC
:101940008861886900F480500490886940F0040040
:1019500088618869694600F004000490A020009026
:1019600002200190032003900E48FFF76BFB0F4C01
:101970000D4820601020C4E901058020C4E903055A
:101980006561A5612046E561FFF71CFB08B1FFF723
:10199000FEF9B464666206B070BD0000003001401C
:1019A000001002400008014030000240380A0020C8
:1019B0002DE9F84F044690F8500000271D461646C2
:1019C000894601280DD04FF0010B84F850B0FFF785
:1019D00033FC804694F85100BA46012804D002270F
:1019E00093E00220BDE8F88FB9F1000F73D0002E0C
:1019F00071D0032084F85100C4F854A0C4F830908A
:101A0000A686E686C4F838A0A4F83CA0A4F83EA0B8
:101A1000C4F844A0C4F840A0A068B0F5004F09D1B4
:101A20002068016821F0400101602068016841F4EC
:101A30008041016020680168490603D4016841F0D3
:101A400040010160E068B0F5006F606803D030B31A
:101A5000012E24D041E008B1012E1CD1206B216859
:101A60000088C86006E020688168890709D5216B75
:101A70000988C160206B801C2063E08E401EE086D8
:101A800009E0FFF7D9FBA0EB0800A84202D3681CCD
:101A900001D031E07DB3E08E0028E4D120E0206B5E
:101AA00021680078087306E020688168890709D5F5
:101AB000216B09780173206B401C2063E08E401E6F
:101AC000E0860AE0FFF7B8FBA0EB0800A84203D3CA
:101AD000681C02D010E017E06DB1E08E0028E3D161
:101AE00042462946204600F072FC08B1202060657D
:101AF000A06818B106E0FFE7032706E02068C16888
:101B000080680090606D00B1012784F851B084F8BE
:101B100050A0384666E710B5401EB0F1807F01D373
:101B2000012010BD4FF0E02460610F21601700F02C
:101B300037FE0020A06107202061002010BD704703
:101B400070470000F8B5026804461068D168536910
:101B500010F00F0F4FF0000554D003F0010601F410
:101B6000907737435FD0C20705D0CA0503D5226CF2
:101B700042F001022264420705D5DA0703D0226C45
:101B800042F002022264820705D5DA0703D0226CF4
:101B900042F004022264020707D501F0200232431A
:101BA00003D0226C42F008022264226C002A35D055
:101BB000800604D5880602D5204600F0C8FC2068BF
:101BC0004069216CC0F3801001F0080101432046F8
:101BD00025D000F0A4FC2068416949061BD5416965
:101BE00021F040014161A06BA8B158494163A06B4D
:101BF000FFF7F2F8002811D0A06B416B01B0BDE8EF
:101C0000F040084783060ED58B060CD52046BDE86C
:101C1000F84000F09CBC2046FFF792FFF8BDFFF7AC
:101C20008FFF2564F8BD266B2023012E52D1C606F6
:101C300050D5CE064ED510685068009050694006C9
:101C40002AD5A16B086840680004000CEAD0A68D74
:101C50008642E7D9E0858869202818D0D06820F42A
:101C60008070D0602068416921F0010141612068E5
:101C7000416921F04001416184F83E3025632068CC
:101C8000C16821F01001C160A06BFFF782F8A08D40
:101C9000E18D401A81B219E0A08DE18D401A81B228
:101CA000E08D0028BED00029BCD0D06820F4907010
:101CB000D0602068426922F00102426184F83E301F
:101CC00025632068C26822F01002C2602046FFF738
:101CD00036FFF8BD05062BD50D0629D594F83D0035
:101CE0002128F6D1A068B0F5805F01D12069B0B19C
:101CF000206A411C2162216800784860E08C401E07
:101D00000004000CE084E4D12068C16821F0800167
:101D1000C1602068C16841F04001C160F8BD206A1F
:101D20000088C0F308005060206A801C2062E5E74C
:101D30004006F3D54806F1D5D168204621F0400190
:101D4000D16084F83D3000F0D0F8F8BD0F250008D0
:101D500070B5040004D094F83D00002510B106E0F1
:101D6000012070BD84F83C50204600F023F8242068
:101D700084F83D002068C16821F40051C16020460C
:101D800000F040FC2068016921F490410161206865
:101D9000416921F02A0141612068C16841F4005184
:101DA000C1602564202084F83D0084F83E000020B6
:101DB00070BD000030B585B00024009401940294F9
:101DC00003940068184988422CD11848816941F46D
:101DD00080418161816901F480410491816941F010
:101DE000040181618069124D00F0040004904FF4F9
:101DF000007000900220019003200390694628465D
:101E0000FFF720F92815CDE9000469462846029419
:101E1000FFF718F9002211462520FFF779FA25204F
:101E2000FFF768FA05B030BD0038014000100240ED
:101E300000080140704700002DE9F843044690F87F
:101E40003D001F4616460D4620284CD1C5B1BEB1F7
:101E500094F83C00012846D0012084F83C004FF063
:101E60000008C4F84080212084F83D00FFF7E4F921
:101E7000A6848146E684A068B0F5805F03D004E0C4
:101E80000120BDE8F883206928B12E465FF00005E7
:101E900084F83C800EE00026FAE78021204600F01E
:101EA0000DFCA0B9AEB116F8010B21684860E08CBA
:101EB000401EE084E08C4B464FF000020097002863
:101EC000EBD14FF04001204600F0F8FB30B1032089
:101ED000D7E735F8020BC0F30800E6E7202084F8C6
:101EE0003D000020CDE70220CBE77047FEE7000071
:101EF00028B1012805D0022803D0034870470348C1
:101F0000704703487047000000140140000801407A
:101F100000100140094808B5416941F001014161E3
:101F20004069002200F00100009011460D20FFF7EB
:101F3000EFF9BDE808400D20FFF7DCB900100240C2
:101F40002DE9F04385B000243E48009401940294AA
:101F50000394816941F010018161816901F01001F0
:101F60000491816941F020018161816901F02001C2
:101F70000491816941F004018161816901F00401EA
:101F80000491816941F0080181618069DFF8B890AE
:101F900000F008000490002201214846FFF747F9AD
:101FA0002A4F01220E213846FFF741F9DFF8A080C1
:101FB000012204214046FFF73AF900224FF4606104
:101FC0004046FFF734F90125022603960095CDE936
:101FD000015469464846FFF735F8CDE90054694693
:101FE00038460296FFF72EF80E20CDE90005CDE920
:101FF000024669463846FFF725F848F250108DE84A
:10200000310069463846FFF71DF840F60460CDE917
:102010000005CDE9024669464046FFF713F84FF444
:1020200040708DE8310069464846FFF70BF8042000
:102030008DE8310069460748FFF704F805B0BDE8B0
:10204000F083000000100240001001400008014031
:10205000000C014000140140104810B50E49016009
:102060004FF48271416000218160C1604FF40072C1
:102070000161C0E905122022C0E9072141628162A5
:102080000A21C162FFF7F2FB002803D0BDE810402F
:10209000FEF77DBE10BD000000300140E0090020C9
:1020A0000C4810B50A4901604FF4E131416000214C
:1020B00081600C22C160C0E904128161C161FFF737
:1020C00047FE002803D0BDE81040FEF760BE10BDFB
:1020D000003801407C0A00202DE9F041DFF8E08261
:1020E0002024002204214046FFF7A1F8B54D10211D
:1020F0002846FFF797F860B91420FEF791FF1021EA
:102100002846FFF78FF80028F9D00F20FEF788FF48
:102110002F2440212846FFF785F860B91420FEF7E8
:102120007FFF40212846FFF77DF80028F9D00F20D7
:10213000FEF776FF3D244FF4807631462846FFF7C0
:1021400071F860B91420FEF76BFF31462846FFF79F
:1021500069F80028F9D00F20FEF762FF30244FF411
:10216000004739462846FFF75DF860B91420FEF7AE
:1021700057FF39462846FFF755F80028F9D00F20B9
:10218000FEF74EFF6324012204214046FFF74FF87B
:10219000002202212846FFF74AF810212846FFF7BF
:1021A00041F860B91420FEF73BFF10212846FFF7E5
:1021B00039F80028F9D00F20FEF732FF2A244021F9
:1021C0002846FFF72FF860B91420FEF729FF4021B9
:1021D0002846FFF727F80028F9D00F20FEF720FF48
:1021E000392431462846FFF71DF860B91420FEF760
:1021F00017FF31462846FFF715F80028F9D00F20C1
:10220000FEF70EFF382439462846FFF70BF860B971
:102210001420FEF705FF39462846FFF703F800288B
:10222000F9D00F20FEF7FCFE37240022042140469F
:10223000FEF7FDFF012202212846FEF7F8FF0022EB
:1022400004212846FEF7F3FF10212846FEF7EAFF97
:1022500060B91420FEF7E4FE10212846FEF7E2FFE5
:102260000028F9D00F20FEF7DBFE2D244021284660
:10227000FEF7D8FF60B91420FEF7D2FE40212846B1
:10228000FEF7D0FF0028F9D00F20FEF7C9FE362454
:1022900031462846FEF7C6FF60B91420FEF7C0FE9F
:1022A00031462846FEF7BEFF0028F9D00F20FEF782
:1022B000B7FE352439462846FEF7B4FF60B914202E
:1022C000FEF7AEFE39462846FEF7ACFF0028F9D0EF
:1022D0000F20FEF7A5FE3424002204214046FEF71D
:1022E000A6FF012202212846FEF7A1FF01220421B8
:1022F0002846FEF79CFF002208212846FEF797FF9C
:1023000010212846FEF78EFF60B91420FEF788FEE4
:1023100010212846FEF786FF0028F9D00F20FEF78F
:102320007FFE2B2440212846FEF77CFF60B9142055
:10233000FEF776FE40212846FEF774FF0028F9D00C
:102340000F20FEF76DFE332431462846FEF76AFF64
:1023500060B91420FEF764FE31462846FEF762FF9E
:102360000028F9D00F20FEF75BFE322439462846BC
:10237000FEF758FF60B91420FEF752FE3946284692
:10238000FEF750FF0028F9D00F20FEF749FE312458
:10239000002204214046FEF74AFF0122022128467E
:1023A000FEF745FF012204212846FEF740FF0122E7
:1023B00008212846FEF73BFF2046BDE8F0810000DB
:1023C000000C014000080140FEE7FEE7704738B509
:1023D0000B46009204460022802100F009F80028F4
:1023E00004D0606D40F020006065032038BD00001F
:1023F0002DE9F8431E46914688460446089DFEF79F
:102400001BFF401B351AFEF717FF074625480068DB
:10241000C0F3CB30684338E0701C37D0FEF70CFFB8
:10242000C01BA84203D215B1009860B32CE020680D
:10243000416821F0E00141606068B0F5827F0BD116
:10244000A068B0F5004F02D0B0F5806F04D12068CD
:10245000016821F040010160A06AB0F5005F09D178
:102460002068016821F4005101602068016841F48E
:1024700000510160012084F85100002084F85000D0
:102480000320BDE8F8830025401E00902068816885
:1024900038EA010004D000214945BDD10020F0E711
:1024A0000121F9E7F40100207047FEF7CBBE30B5FB
:1024B0008FB028216846FDF759FE14210AA8FDF7C0
:1024C00055FE01210804CDE90010002402940225E4
:1024D0000491CDE907504FF4E01009906846FFF7EA
:1024E00035F808B172B6FEE70F20CDE90A054FF4C2
:1024F0008060CDE90C4002210AA80E94FEF73AFF55
:10250000002801D072B6FEE70FB030BD704710B59D
:10251000406A0021C185C184FFF712FB10BD01682C
:10252000CA6822F49072CA6001684A6922F0010206
:102530004A61016B012904D10168CA6822F01002C6
:10254000CA60202180F83E1000210163704708B561
:1025500090F83E10222901D0022008BD82684FF475
:1025600080539A4201D1016921B1816A9A421BD0FC
:102570004AB10AE00268816A5268C2F308020A801E
:10258000816A891C08E0026972B10268526802F02F
:102590007F020A70816A491C8162C18D491E09044B
:1025A000090CC18503D019E002685268F1E701689F
:1025B000CA6822F02002CA600168CA6822F48072E8
:1025C000CA6001684A6922F001024A61202180F84C
:1025D0003E10016B012903D0FFF72CFC002008BD41
:1025E000002101630168CA6822F01002CA60016814
:1025F0000A68D20602D50A6849680091818DFFF702
:102600009EFAEBE770B5044600680169E26821F4C0
:102610004051114301612169A06808436169084381
:102620002168CA6841F20C639A430243CA60206879
:102630004169A26921F44071114341611E4920683A
:10264000884202D1FEF73CFF01E0FEF729FF00EBD4
:10265000C00101EB0012606864218000B2FBF0F35E
:10266000B3FBF1F36FF018067343B2FBF0F5B2FB66
:10267000F0F605EB8305322303EB0515B5FBF1F509
:10268000B6FBF1F605F0F00505EB0615B2FBF0F62A
:10269000B2FBF0F0B0FBF1F06FF01802504306EB24
:1026A000800003EB0010B0FBF1F0216800F00F0098
:1026B0002844886070BD0000003801402DE9F041D9
:1026C000984617460E460446069D1DE0681C1BD022
:1026D0002DB1FEF7B1FDA0EB0800A84214D9206887
:1026E000C16821F4D071C1602068416921F0010105
:1026F0004161202084F83D0084F83E00002084F8E9
:102700003C000320BDE8F0812068006836EA000044
:1027100004D00020B842D9D00020F3E70120F9E727
:102720000148FFF70FBA00007C0A0020FEE7000016
:102730000FB4054B10B503A9044A029800F08EFDB2
:1027400010BC5DF814FB000049510008F80100209E
:102750000FB4084B10B504A902AA039800F07EFD3F
:10276000044602A9002001F010F9204610BC5DF8D3
:1027700014FB00008B390008490050EAC12018BF43
:1027800004204A0D18BF40F0010040F2FF72B2EB86
:10279000515F08BF40F00200012808BF05207047C4
:1027A0000907090E002804DB00F1E02080F800147E
:1027B000704700F00F0000F1E02080F8141D704712
:1027C0002DE9F74F144694B00021C4E90211159980
:1027D000079121F00045C9498D4206DC1599C4E9ED
:1027E000000117B00020BDE8F08FC549DFF814A341
:1027F000A9423CDD0799C44E0029C44FC44A15992B
:10280000534619DDFDF77AFD554506D0C14AC24B46
:10281000FDF774FDC4E900010AE04FF0D352BE4B4E
:10282000FDF76CFD32463B46FDF768FDC4E900014B
:1028300017B00120BDE8F08FFDF7BFFC554506D06D
:10284000B44AB54BFDF7B9FCC4E900010AE04FF00A
:10285000D352B14BFDF7B1FC32463B46FDF7ADFC20
:10286000C4E9000117B04FF0FF30BDE8F08FAB496D
:10287000A942159978DB21F0004183468846A84A91
:10288000A84BFDF741FD0022A74BFDF796FCFDF795
:10289000E5FF0990FDF730FE06460F469C4A534679
:1028A000FDF732FD43465A46FDF72BFD80468A462A
:1028B000984A994B30463946FDF726FD2A0D0125E9
:1028C0000B9242465346FDF71CFD032DC4E900015F
:1028D00039D00B98C1F30A51401A05EB4511113953
:1028E000814230DA9148C346784400EB0510CDF8B8
:1028F0000CA00C90D0E9002330463946FDF704FDCA
:1029000002460B460491069058460399FDF7F6FCE3
:1029100080468A4602460B4658460399FDF7EEFC70
:10292000049B069AFDF7EAFC83460C98039139460E
:10293000D0E902233046FDF7E7FC5A46039BFDF73A
:10294000DDFC6D1CBDE707980028A2BF099817B0F1
:10295000BDE8F08F616881F000416160099817B0AF
:102960004042BDE8F08FFFE784461598C1F313019C
:10297000C0F30A50A0F2F5304FEA601800F01F06CD
:10298000C6F12000139000200690079041F4801EAD
:1029900005206D4676B1664A08EB00017A4452F88C
:1029A000213002EB8101B3404A68139922FA01F108
:1029B000194305E05F4908EB0002794451F8221001
:1029C000A1FB0E27A1FB0C131A449A4234BF01232A
:1029D000002303EB070A05EB8003D3E901B70F449B
:1029E0008F4234BF0121002193448B4411B19345A0
:1029F00002D903E0934501D2012100E00021C3E99F
:102A000001B7514445F82010011EA0F10100C1DCBE
:102A10000298059F00F10050800F12900298DDE9A6
:102A200003568000FDF768FD834628460D91FDF7AB
:102A300074FD6FF01D02FDF748FDCDE90E01304633
:102A4000FDF76BFD6FF03D02FDF73FFD80468A46C6
:102A50003846FDF762FD6FF05D02FDF736FD074673
:102A6000424653461191FDF7A8FBDDE90E23FDF721
:102A7000A4FB5A460D9BFDF7A0FB00250E465A46C7
:102A800028460D9BFDF73AFCDDE90E23FDF736FCE9
:102A900042465346FDF732FC3A46119BFDF731FCA6
:102AA000DFF898A0244A5346FDF72EFC07468846D7
:102AB000234A244B31462846FDF726FC3A46434636
:102AC000FDF77BFB074688464FF0A8425346314648
:102AD0002846FDF719FC3A464346FDF76EFB159A6A
:102AE00012F0004F04D0129A81F00041524212922B
:102AF000C4E90001129817B0BDE8F08FFB21E93F4F
:102B00007CD90240FB21F93F7370032E8A19A33B45
:102B1000000040543163621A61B4D03DFB21394159
:102B200083C8C96D305FE43F0000E03FA48400002B
:102B30002084000002840000182D4454FB21F93D3C
:102B40003326A611460B113C2DE9FF4D21F000481C
:102B500007460C46B8F1795F08DAFDF77FFE0028DA
:102B600001BF0020324904B0BDE8F08D3A4623464B
:102B700010461946FDF7C8FB054602462D480E468D
:102B80000B460621784400F05DF82A463346FDF7EF
:102B9000BBFBDDE9022382468B4638462146FDF722
:102BA000B3FB04460F4652465B4628463146FDF7C6
:102BB000ABFB22463B46FDF7A1FB07468A464FF09A
:102BC000FF3228463146FDF780FC1B4A90450ADA61
:102BD0003A465346FDF792FB04B00022BDE8F04DA3
:102BE000134BFDF78EBB154A4245A8BFA8F500154B
:102BF0004FF00004B8BF124D22462B46FDF77EFB76
:102C00000646884622462B4600200949FDF776FBFA
:102C100004460D463A46534630464146FDF76EFBA4
:102C200004B022462B46BDE8F04DFDF76ABB00001C
:102C30000000F03FD08100003333D33F0000E93F74
:102C40000000D23F2DE9F0414F1E00EBC7010446C2
:102C5000D1E9000115461E4637F006020DD02A467E
:102C60003346FDF751FB7F1E04EBC703D3E9002376
:102C7000FDF7A3FA37F00602F1D1022F25D0042F79
:102C800013D0062F18BFBDE8F0812A463346FDF762
:102C90003BFBD4E90A23FDF790FA2A463346FDF7B9
:102CA00033FBD4E90823FDF788FA2A463346FDF7BB
:102CB0002BFBD4E90623FDF780FA2A463346FDF7BD
:102CC00023FBD4E90423FDF778FA2A463346FDF7BF
:102CD0001BFBD4E90223FDF770FA2A463346FDF7C1
:102CE00013FBD4E90023BDE8F041FDF766BA00000C
:102CF0002DE9FF4D054621F0004084B00C46B0F1AF
:102D0000795F0BDA2846FFF737FD042808BF00F08B
:102D1000BDF9284608B02146BDE8F08D2A460B468D
:102D20001046FDF7F1FA06460F462A462346FDF700
:102D3000EBFA804626488A4632463B4605217844CF
:102D4000FFF780FF83461098029160B3214A224B1F
:102D500040465146FDF7D8FACDE900015A464046B3
:102D60005146029BFDF7D0FA82468846DDE906010E
:102D70004FF0FF32FDF7A9FB52464346FDF7BEFA7E
:102D800032463B46FDF7C0FADDE90623FDF7B6FA09
:102D9000DDE90023FDF7B2FA08B02A462346BDE874
:102DA000F04DFDF7AEBA0B465A4630463946FDF7B0
:102DB000ABFA084A084BFDF700FA42465346FDF7C6
:102DC000A3FA08B02A462346BDE8F04DFDF7F5B951
:102DD00016810000495555555555C5BF2DE9F04D93
:102DE00004468CB0904821F00047164698460D46A0
:102DF0000991874206DA20462946FDF72FFD002873
:102E000000F0AE808948B8421CDC09980028BCBF9D
:102E100085F0004588F00048854A864B20462946C3
:102E2000FDF76FFA04460D46324643468248834911
:102E3000FDF764FA22462B46FDF7BFF9002604464B
:102E40000D46B04622462B4610461946FDF75CFA61
:102E50008B46824602460B46FDF756FA024608901C
:102E600077480B46009106217844FFF7EBFECDE949
:102E70000310744806217844009B089AFFF7E2FE8D
:102E800052465B46FDF740FACDE9051052465B46D7
:102E900020462946FDF738FA07910090DDE9031036
:102EA000DDE90532FDF789F9079B009AFDF72CFA59
:102EB00032464346FDF781F952465B46FDF724FA58
:102EC00032464346FDF779F980460E465E4A5F4B2F
:102ED00007990098FDF718FA42463346FDF76DF959
:102EE00082468B4622462B46FDF767F980464F48BF
:102EF0000E46B84214985BDCFDF7FEFA07464246E0
:102F000033460591FDF759F9CDE9011042463346A4
:102F100010461946FDF7F8F9DDE90132FDF766FACA
:102F200052465B46FDF7EAF922462B46FDF7E9F9E2
:102F30000122FDF7CAFA3A46059BFDF7E2F904467D
:102F40000D460998022101EAA070C0F10100FDF7C9
:102F5000D3FA0CB022462B46BDE8F04DFDF7D4B9AC
:102F60001498401C384320430BD01498012812D0E9
:102F70000CB022462B46BDE8F04D00203449FDF749
:102F800035BA0CB025F000432246BDE8F04D0020D4
:102F90003049FDF72BBA20462946FFF7EDFB042800
:102FA00008BF00F073F820460CB02946BDE8F08D4C
:102FB000012802BF40460CB0BDE8F08D00270B464B
:102FC0003A4620462946FDF79CF952465B46FDF7F6
:102FD00098F904460D464246334600201C49FDF749
:102FE00005FA83463A46884633461046FDF78CF983
:102FF0000022184BFDF7E1F806468A4622462B468A
:1030000038464146FDF780F932465346FDF7D5F87C
:103010005A464346FDF778F90CB03A464346BDE8B8
:10302000F04DFDF7CAB800000000303E2894E53F9F
:10303000182D4454FB21E93F075C143326A6813C3C
:103040001480000036800000635555555555D53F16
:103050000000F0BF0000F03F002213461046014977
:10306000FDF7C4B90000F03F0122FDF72EBAFDF7CD
:10307000A4B80022134610461146FDF7B7B940F236
:10308000013200204FF0E041FDF71FBA024A002054
:103090001107FDF71ABA000001FDFFFF02E008C8A2
:1030A000121F08C1002AFAD170477047002001E0C2
:1030B00001C1121F002AFBD17047000001490860BE
:1030C00070470000FC0100202DE9FF5F82B0002165
:1030D000DDE90430020DDDF840B0034318D044F6BA
:1030E0001050A2F2FF3242431514119801281FD04C
:1030F000A5EB0B00401C5FEA000A4FF000064E4FA4
:10310000DFF83891B046504615D5CAF1000413E0F7
:10311000119801244AA3012801D16FEA0B010298FA
:10312000119AC0E90031C0E9024206B0BDE8F09F43
:10313000CBF10000DFE704460021404A491842EB8A
:103140000450CDE9001012E0E00707D032463B46BC
:1031500040464946FDF7D8F88046894632463B4608
:1031600010461946FDF7D0F806460F466410002CAD
:10317000EAD1DDE90401DDE90023BAF1000F06DA46
:10318000FDF7C2F842464B46FDF7BEF805E0FDF7F5
:103190002DF942464B46FDF729F904460E4600221A
:1031A000284BFDF7DFF903D84FF0FF30014607E069
:1031B0000022254B20463146FCF7FFFFFDF76DFB53
:1031C000102409E0002C0ADB0A220023FDF7F8F99D
:1031D000039B30321A55641E50EA0102F2D1641C7E
:1031E000039AC4F111031444119A012A03D0012255
:1031F00008430DD10AE0084304D000204FF0110B22
:10320000119072E7A3EB0B056D1E0DE05B4504DD2D
:103210004FF0000205F1010504E003DA4FF000026F
:10322000A5F10105002AECD002981199C0E90231FC
:10323000C0E9004579E70000000014400000F03FBD
:10324000300000000000F0430000E03F30380A2862
:1032500001D2012070470020704700002DE9FF4F88
:1032600095B09B468946064600250FE2252877D172
:1032700000242746F84A0121059400E0044316F88B
:10328000013F203B01FA03F01042F7D130782A28A1
:1032900011D06FF02F033078A0F13002092A16D830
:1032A000059A44F0020402EB820203EB420210444E
:1032B000761C0590EFE759F8042B0592002A03DAF3
:1032C000504244F40054059044F00204761C3078D7
:1032D0002E2816D116F8010F44F004042A280DD028
:1032E0006FF02F023078A0F13003092B09D807EBDB
:1032F000870302EB4303C718761CF3E759F8047BF6
:10330000761C30786C280FD006DC4C2817D0682843
:103310000DD06A2814D104E0742810D07A280FD177
:103320000DE044F400140AE044F4801401E044F495
:1033300040147278824202D104F58014761C761C07
:10334000307866280BD013DC582877D009DC0028A9
:1033500075D04528F6D04628F4D047281AD19DE1EB
:1033600018E0632835D0642879D0652812D195E11A
:10337000702873D008DC6728F1D069286FD06E28D8
:103380000DD06F2806D1B5E073282CD0752875D0E4
:10339000782874D05A46179990476D1C75E1C4F38C
:1033A0000250022809D003280DD0D9F800100428B3
:1033B0000DD00D6009F1040967E1D9F80010EA1792
:1033C000C1E90052F6E7D9F800100D80F2E70D7060
:1033D000F0E719F8041B8DF8001000208DF80100AB
:1033E000EA46012003E059F804AB4FF0FF306107D3
:1033F0004FF0000102D40DE008F101018846B94206
:103400000FDA8045F8DB1AF808100029F4D108E03B
:1034100008F1010188468142FADB1AF808100029F8
:10342000F6D105985B46A0EB080721463846179A67
:1034300000F094FA284400EB080507E04DE029E18C
:103440000DE01AF8010B5A4617999047B8F1010898
:10345000F7D25B4621463846179A13E142E00A222A
:103460000092C4F302524FF0000A022A08D059F821
:1034700004CB032A4FEAEC710AD00DE029E02AE0E0
:1034800009F1070121F00702F2E802C1914609E0C3
:103490000FFA8CFC4FEAEC71042A03D14FFA8CFC32
:1034A0004FEAEC71002907DA0A460021DCF1000C32
:1034B00061EB02012D2202E0220504D52B228DF8BA
:1034C0000420012203E0E20701D02022F7E7904622
:1034D00059E00A2102E010220DE010214FF0000A0D
:1034E00000910BE010224FF0000A44F0040408277A
:1034F000009203E008224FF0000A0092C4F3025247
:10350000022A05D059F804CB0021032A08D009E08B
:1035100009F1070121F00702F2E802C1914605E036
:103520001FFA8CFC042A01D10CF0FF0C4FF00008AC
:10353000220728D5702806D0009B83F0100353EA99
:103540000A0305D00EE040228DF80420012208E095
:103550005CEA010206D030228DF804208DF80500C7
:1035600002229046009B83F0080353EA0A030AD123
:103570005CEA010201D1620705D530228DF80420F2
:103580004FF001087F1E582804D034A003900EA8E5
:1035900002900DE036A0F9E753466046009AFDF729
:1035A0000FF884460398825C0298401E02900270D5
:1035B0005CEA0100F0D1029806A9081A00F1200A7D
:1035C000600702D524F4803400E00127574502DD6E
:1035D000A7EB0A0000E0002000EB0A01009005982C
:1035E0004144401A0590E00306D45B462146179AF1
:1035F000059800F0B3F90544002706E001A85A46F3
:10360000C05D179990476D1C7F1C4745F6DBE003B2
:103610000CD55B462146179A059800F09FF90544A2
:1036200004E030205A46179990476D1C0099481EB7
:1036300000900029F5DC08E0029802995A460078CB
:10364000491C0291179990476D1CBAF10001AAF12B
:10365000010AF1DC65E10000092801003031323354
:1036600034353637383961626364656600000000BE
:1036700030313233343536373839414243444546A8
:103680000000000000F058F90544761C307800284E
:103690007FF4ECAD19B02846BDE8F08F620700D486
:1036A000062709F1070222F0070CFCE80223E14695
:1036B00003F000485FEA080C02D00FF2702C0DE016
:1036C0005FEA045C02D50FF2682C07E05FEAC47C75
:1036D00002D00FF2602C01E0AFF2700C4FF0FF3817
:1036E00023F00043CDF850C065280CD006DC4528F7
:1036F00009D046281DD047283DD13DE0662818D086
:1037000067287ED138E00021112F01DB112000E075
:10371000781CCDE9000106A90EA8FFF7D5FCDDE96C
:103720000F010E9A03910021009207F1010A049102
:103730004DE04FF000400097CDE9011006A90EA81A
:10374000FFF7C2FCDDE90F0203920E9B11990022E4
:10375000DDF80CA00093049211B9791C00EB010A6A
:10376000B7EB0A0004D4C0F1FF3007F1010A04905E
:10377000AAEB0700019044E0012F00DA01270021A5
:10378000112F01DD112000E03846CDE9000106A926
:103790000EA8FFF799FCDDE90F010E9A03910021B5
:1037A00004910092BA4621070CD40399514500DADE
:1037B0008A46BAF1010F05DD009AAAF10101515CB8
:1037C000302908D0B84202DA10F1040F06DA0121DC
:1037D000CDE9011015E0AAF10101E9E7002805DCB7
:1037E000049901440491AAEB000102E0411C5145F7
:1037F00000DD8A460499401A401C01904FF00040B9
:103800000290200704D40198504501DBCDF80480D4
:1038100000208DF84F0002980DF14F07B0F1004FD6
:1038200025D02B200E9002984FF0020800280CDAC9
:10383000404202902D200E9007E00A210298FCF7EA
:10384000A9FE3031029007F8011DB8F10001A8F17E
:103850000108F2DC02980028EFD1791E0E9808705A
:10386000307800F0200040F0450007F8020D12A863
:10387000C01B00F107081498007800B1012000EB8C
:103880000A01019801EBE07105984144401A401E7D
:103890000590E00306D45B462146179A059800F090
:1038A0005DF805441498007818B15A461799904766
:1038B0006D1CE00324D55B462146179A059800F05D
:1038C0004DF805441CE00498002807DBDDE90301FE
:1038D000884203DD0098405C179901E01799302079
:1038E0005A469047049805F10105401C0490019840
:1038F000401E019004D12E205A46179990476D1C06
:10390000BAF10001AAF1010ADDDC05E017F8010BAC
:103910005A46179990476D1CB8F10001A8F10108AB
:10392000F4DC5B462146179A0598ABE62D000000B3
:103930002B000000200000002DE9F0410446002586
:103940001E461746880404D405E039462020B047B7
:103950006D1C641EF9D52846BDE8F0812DE9F041C3
:10396000044600251E469046C80301D5302700E0D6
:103970002027880404D505E041463846B0476D1C31
:10398000641EF9D52846BDE8F0810A68531C0B6017
:10399000107070472DE9F04D0546DFF8388221F0B0
:1039A00000408D4F82B00C46404520DBA0EB080163
:1039B00029430BD08949884201DC10D17DB102B086
:1039C00028462146BDE8F04DFFF74EBB002CC7BF8F
:1039D000002001468248394602B0BDE8F08D012042
:1039E000FFF76CFB02B0BDE8F04DFFF742BB7D492D
:1039F000884244DA7C498142A1BF79487B4902B0C0
:103A0000BDE8F08D2A46234610461946FCF77CFC9B
:103A10008346024676480E460B4606217844FFF759
:103A200011F95A463346FCF76FFC074671488A463F
:103A30005A46334604217844FFF704F95A46334680
:103A4000FCF762FC00224346FCF7B7FB02460B463C
:103A500038465146FCF7CAFC2A462346FCF754FC7C
:103A6000654A664BFCF74DFC2A462346FCF749FCA9
:103A700002B05B4ABDE8F04D5C4BFCF742BC002C49
:103A80004FF000024BDA4646434628462146FCF7F3
:103A900094FB4FF0FF32FCF718FD044602465848ED
:103AA0000D460B4606217844FFF7CCF822462B46FC
:103AB000FCF72AFC804653488A4622462B460421BE
:103AC0007844FFF7BFF822462B46FCF71DFC002286
:103AD0003346FCF772FB06468B462046294605F026
:103AE00075F904460D4632465B4640465146FCF7A2
:103AF0007DFC22462B46FCF707FC3F4A3F4BFCF778
:103B0000FDFB22462B46FCF758FB0122FCF7DDFCAF
:103B100002B03B46BDE8F04D314AFCF7F2BB2D4BFD
:103B200028462146FCF7EDFB4FF0FF32FCF7CDFCB9
:103B300005460E4605F04AF900270C4680463A46EF
:103B40000B46FCF73AFB82468B463A462346104624
:103B50001946FCF7D9FB2A463346FCF7D2FB5246FE
:103B60005B46FCF743FC824627488B462A46334691
:103B700006217844FFF766F82A463346FCF7C4FB73
:103B8000CDE9000121482A46334604217844FFF755
:103B900059F82A463346FCF7B7FB00220D4BFCF7D9
:103BA0000CFB02460B46DDE90001FCF71FFC424618
:103BB0002346FCF7A9FB52465B46FCF7FEFA3A4661
:103BC0002346FCF7FAFA02B00122BDE8F04DFCF7FB
:103BD0007CBC00000000F03FFB2109400000F07FAA
:103BE000182D44540000E03F0000603CFB21F93FE9
:103BF0006070000076700000075C143326A6913CCC
:103C0000D66F0000EC6F00000A6F0000206F00000C
:103C10002DE9F04782460BA8194690E83800DDE907
:103C2000099610463246DDF82080FCF7C6FA0646B3
:103C30000F4622462B4640464946FCF7BEFACAF8D4
:103C40000060CAE90170CAF80C10BDE8F0870000F6
:103C50002DE9F04D8D4F21F0004A86B005460C4607
:103C6000BA452ADBAAEB070028430AD088488245D8
:103C700001DC1AD1CDB106B02846BDE8F04DFFF702
:103C8000F3B9844A844B2846FCF73EFB07460E46B0
:103C9000824A834B28462146FCF736FB06B03A465B
:103CA0003346BDE8F04DFCF788BA0120FFF706FA6D
:103CB00006B0BDE8F04DFFF7DCB97A48824542DA3C
:103CC000BAF1795F0BDA2846FEF756FD042808BFE3
:103CD000FFF7DCF9284606B02146BDE8F08D2A46FC
:103CE0000B461046FCF710FB834602466E480E4614
:103CF0000B4606217844FEF7A5FF5A463346FCF7EB
:103D000003FB804669488A465A4633460421784474
:103D1000FEF798FF5A463346FCF7F6FA00223B4678
:103D2000FCF74BFA02460B4640465146FCF75EFB59
:103D30002A462346FCF7E8FA06B02A462346BDE8A1
:103D4000F04DFCF73ABA284624F0004100223D46E7
:103D50003B46FCF7D6FA4FF0FF32FCF7B6FB0646BF
:103D6000024653480F460B4606217844FEF76AFF89
:103D700032463B46FCF7C8FACDE900014D483246D1
:103D80003B4604217844FEF75DFF32463B46FCF794
:103D9000BBFA00222B46FCF710FA8346029130460C
:103DA000394605F013F8804643480D46504517DC68
:103DB000DDE900015A46029BFCF718FB42462B4600
:103DC000FCF7A2FA42462B46FCF7F7F90122FCF772
:103DD0007CFB304A304BFCF791FA304A304B4CE0D8
:103DE0004FF0000A52460B464046FCF7E6F9CDE993
:103DF000031052462B4610461946FCF785FA324608
:103E00003B46FCF77EFADDE90332FCF7EFFA0646A3
:103E10000F46DDE900015A46029BFCF7E7FA8346AC
:103E20000091012230463946FCF74FFB194A1A4BE4
:103E3000FCF767FA06460F46012240462946FCF782
:103E400044FB5A46009BFCF75FFA32463B46FCF7C0
:103E500055FA06460F46012250462946FCF735FB27
:103E60000E4DDFF858802A464346FCF74AFA3246A0
:103E70003B46FCF746FA2A464346FCF742FA002C3A
:103E8000D8BF81F0004106B0BDE8F08D0000F03FE2
:103E90000000F07F075C143326A6913C182D445493
:103EA000FB21F93F0000E03FD86D0000EE6D0000FF
:103EB000626D0000786D00003333EF3FFB21E93F76
:103EC0002DE9F84F04460D4621F00040009173495A
:103ED000814211DC7249884201DC06D12CB12046B6
:103EE0002946BDE8F84FFFF7BFB86E48002DCCBF9C
:103EF0006D496E49BDE8F88F6D49814211DD6D490C
:103F00008142D8BF4FF0FF366DDD20462946FEF7CF
:103F100033FC042808BFFFF7B9F820462946BDE85E
:103F2000F88F6549654F25F00045814233DD6449CE
:103F3000814219DD002632464FF080432046294653
:103F4000FCF73BF980468A46012220462946FCF7C9
:103F5000BCFA00223B46FCF7D1F942465346FCF737
:103F600045FA04460D463EE001260022BA463B468D
:103F700020462946FCF721F980460F460022534689
:103F800020462946FCF7BAF942463B46FCF72EFA92
:103F900004460D4627E04B4981421BDDDFF828A18E
:103FA00002260022534620462946FCF7ADF900229E
:103FB0003B46FCF702F980460F4600225346204656
:103FC0002946FCF79BF942463B46FCF70FFA0446AC
:103FD0000D4608E0032622462B4600203B49FCF70D
:103FE00005FA04460D4622462B4610461946FCF7B4
:103FF0008BF98B46824602460B46FCF785F907464D
:104000000246334888460B4606217844FEF71AFEDE
:1040100052465B46FCF778F982462E488B463A4674
:10402000434605217844FEF70DFE3A464346FCF729
:104030006BF902460B46002E504659460CDAFCF747
:10404000BCF822462B46FCF75FF901B022462B460E
:10405000BDE8F04FFCF755B9FCF7AFF822462B4608
:10406000FCF752F91C4A7A4402EBC603D3E9002359
:10407000FCF744F922462B46FCF740F9174A7A44EC
:1040800002EBC603D3E90023FCF73BF9009A002AB0
:10409000B8BF81F00041BDE8F88F00000000104477
:1040A0000000F07F182D4454FB21F93FFB21F9BF9C
:1040B0000000DC3F0000203E0000F33F0000F03F26
:1040C0000000E63F008003400000F83F0000F0BF22
:1040D0007A6B0000386B0000D66A00009E6A000010
:1040E0002DE9F84F002706463C46B846F14D0EE054
:1040F000305D282802D0292802D002E07F1C00E091
:104100007F1E002F02DA85F8008005E0641C30462F
:10411000FCF743F8A042EBD8012435E006EB040994
:1041200019F8010C01F02DF810B1305D292835D0B7
:10413000305D8246282807D1FCF704F8016819F899
:10414000010C085C202829D0FBF7FCFF016811F85E
:104150000A00202803D119F8010C29281ED0304666
:10416000FCF71BF8304410F8010C01F00AF8A8B96C
:10417000307801F006F888B919F8010C2F2802D11F
:10418000305D30280AD0641C3046FCF706F8A042A7
:10419000C4D82878401E07430CD102E085F800807F
:1041A000F7E73046FBF7F9FF022809D1307800F035
:1041B000E8FF28B1002085F800800146BDE8F88FAF
:1041C0000024DFF8F49253E1FBF7BCFF0090016894
:1041D000305D095C202927D0282850D0292858D0C4
:1041E0002E285FD073287DD063287CD074287BD0A4
:1041F0006C287AD0652879D0702878D0612877D05B
:10420000212876D0AD4AA9680027B846515C2B29F1
:1042100070D02D296FD02A296ED02F296DD05E291C
:104220006CD073296BD0D7E00027B84614E0641C2B
:10423000FCF773F982468B460022A14B3846414673
:10424000FCF762F852465B46FBF7B7FF00229D4B36
:10425000FCF754F8074688463046FBF79EFFA0421D
:1042600005D900980168305D095C2029DFD06968B4
:10427000491C09EBC1006960C0E900784DE0A968FC
:104280008E4A491CA9605054F1E000BF05F082FE3F
:1042900000E08A4FA868385C2828F7D1A868401E3B
:1042A000A860E4E04FF0FF37641C2BE03038641C5A
:1042B000FCF722F980468A463846FCF71DF90B4682
:1042C000024600207E4901F0EBFB42465346FCF7D4
:1042D0001BF86B6809EBC30398460CCBFBF76DFF2B
:1042E0007F1E0DE01BE01CE022E02CE038E041E006
:1042F0004BE05FE065E066E067E068E069E06AE0A7
:10430000C8E900013046FBF748FFA04205D90098F4
:104310000168305D095C2029C8D0641EA7E07322C3
:1043200000E06322A8686549401CA8600A5408E0C0
:10433000A9680020491CA960634A09EBC101C1E9D1
:104340000002A41C93E0301940786E2801D0672247
:10435000E8E7A8686C225949401CA8600A5412E09A
:104360006A685B49521C6A6009EBC2025748C2E99D
:1043700000017CE06868584A401C686009EBC00096
:104380005449C0E90012641C71E03019C0787328E8
:1043900004D0632804D074280AD068E0692200E0C1
:1043A0006F22A8684549401CA8600A54641D5EE05D
:1043B0007022F6E7A86821224049401CA8600A54F0
:1043C00055E0012708E0022706E0032704E0042760
:1043D00002E0052700E006272B2808D02D2808D06A
:1043E0002A282ED02F282ED05E282ED003E00120A0
:1043F00000E0022080469246A868002831DB2D4963
:104400000C3151F8272051F828108A4229DB315D00
:104410005E2926D01AF80000282822D005F0BAFD1F
:10442000A9681AF801002B2811D02D2811D02A28AC
:1044300011D02F2811D05E2811D07328DCD1062787
:10444000DAE70320D6E70420D4E70520D2E70127E6
:10445000D2E70227D0E70327CEE70427CCE70527DA
:10446000CAE7A868325D401CA8600AF80020641CF6
:104470003046FBF792FEA0423FF6A6AE02E000BF38
:1044800005F088FDA868401CFAD1696809EBC100F5
:10449000D0E900614FF0FF300C4668604FF448717E
:1044A0000548FBF763FE64210448FBF75FFE3046D6
:1044B000214683E6000000200002002020050020A5
:1044C000000024400000484000005D40A7BF158B5D
:1044D0000ABF0540112D4454FB2109402DE9FF5F1F
:1044E0009AB0064664216846FBF740FE31466846AE
:1044F000FBF75AFED5A16846FBF743FE6846FEF778
:1045000017F90024DFF84893DFF848837AE100BF09
:10451000FBF718FE19900168305D095C20292AD04C
:10452000282855D029285ED02E2866D073287CD024
:1045300063287BD074287AD06C2879D0652878D00D
:10454000702877D0612876D0212875D0782874D04B
:10455000C14AD8F8081000252F46515C2B296DD090
:104560002D296CD02A296BD02F296AD05E2969D0D9
:10457000732968D0F7E000252F4614E0641CFBF790
:10458000CCFF83468A460022B44B28463946FBF7C7
:10459000BBFE5A465346FBF710FE0022B04BFBF71A
:1045A000ADFE05460F463046FBF7F7FDA04205D9A4
:1045B00019980168305D095C2029DFD0D8F8041013
:1045C000491C09EBC100C8F80410C0E9005751E0CC
:1045D000D8F80820A049521CC8F80820885410E1D7
:1045E00005F0D8FC01E09C4F4546A868385C2828B7
:1045F000F6D1A868401EA86003E14FF0FF35641CA7
:104600002DE03038641CFBF777FF07468A462846C2
:10461000FBF772FF02460B460020904901F040FA7A
:104620003A465346FBF770FE0EE025E026E02EE00A
:104630003AE048E053E05FE075E07DE088E089E043
:104640008AE08BE08CE08DE0D8F8043009EBC307FA
:10465000D7E90023FBF7B1FDC7E900016D1E304625
:10466000FBF79BFDA04205D919980168305D095CF4
:104670002029C6D0641EC4E0732200E06322D8F86B
:1046800008107548491CC8F8081042540AE0D8F8C8
:1046900008200021521C734B09EBC200C8F8082007
:1046A000C0E90013A41CACE0301940786E2801D09A
:1046B0006722E4E7D8F808106C226748491CC8F85C
:1046C0000810425416E0D8F80420684B521C09EB3D
:1046D000C2006549C8F80420C0E9001391E0D8F889
:1046E0000410644B491C09EBC100614AC8F804106E
:1046F000C0E90023641C84E03019C078732804D01A
:10470000632804D074280CD07BE0692200E06F227B
:10471000D8F808105048491CC8F808104254641DC5
:104720006FE07022F4E7D8F8081021224A48491CAB
:10473000C8F80810425464E0D8F80430DDE91C12CF
:104740005B1C09EBC300C8F80430C0E9001258E054
:10475000012508E0022506E0032504E0042502E027
:10476000052500E006252B2808D02D2808D02A286A
:1047700008D02F2808D05E2808D008E0012706E0DE
:10478000022704E0032702E0042700E00527924601
:10479000D8F8081000292CDB2E4B0C3353F82520B9
:1047A00053F827309A4224DB325D5E2A21D01AF872
:1047B000010028281DD005F0EDFBD8F808101AF8E4
:1047C00001002B280BD02D280BD02A280BD02F2806
:1047D0000BD05E280BD07328DAD10625D8E7012547
:1047E000D6E70225D4E70325D2E70425D0E705253F
:1047F000CEE7D8F80810325D491CC8F808100AF84E
:104800000120641C3046FBF7C8FCA0423FF680AE96
:104810004446A068401C02D005F0BCFBF9E7616883
:1048200009EBC100D0E900614FF0FF300D46606038
:104830004FF448710648FBF799FC64210648FBF7E2
:1048400095FC1EB030462946BDE8F09F0D0A0000D9
:10485000000200200000002020050020000024406D
:104860000000484000005D40A7BF158B0ABF05400F
:10487000112D4454FB2109402DE9FF5F9AB0914668
:10488000DDE928679A4632463B461A98FFF726FE2E
:1048900005460C464A4653461A98FFF71FFE2A461D
:1048A0002346FBF78AFC4FF0FF32FBF70EFE04466F
:1048B0000D464FF47A7B4A46534630463946FBF75D
:1048C0001DFD0022184BFBF791FD07468846012687
:1048D0003046FBF711FE3A464346FBF715FD4A46C4
:1048E0005346FBF76AFC02460B461A98FFF7F6FDA3
:1048F00022462B46FBF761FC04460D4602460B465A
:104900000AA16846FDF724FF6846FDF711FF761CF3
:104910005E45DDDB1EB03A46434620462946BDE8EB
:10492000F05FFBF7F1BC000000408F40252E346C97
:10493000660000002DE9F04F3948384E8DB0006810
:1049400006EB0018401E98E8A010BA4606EB0017C8
:10495000E346D8F80C90D7E900C8D7E90267CDF84C
:1049600018C0DFF8BCC0401EC646CCF800002D4879
:10497000DCF804C0DFF8A88010F80C00ACF1010CE2
:10498000C8F804C02B2806D02D2811D02A281CD006
:104990002F2827D035E002A8CDF8149080E8200C0D
:1049A000CDE90067734608A8069AFFF731F925E0BC
:1049B00002A8CDF8149080E8200CCDE9006773467A
:1049C00008A8069A01F014F818E002A8CDF814908F
:1049D00080E8200CCDE90067734608A8069A01F02C
:1049E00026F80BE002A8CDF8149080E8200CCDE961
:1049F0000067734608A8069A00F000FA08A890E835
:104A00001E00074805686D1C0560044800EB051092
:104A100080E81E000DB0BDE8F08F0000C00A002045
:104A2000C4010020001100202DE9F34F83B00D4692
:104A30000024DFF814B3DFF814A353E1FBF782FB83
:104A400002900168285D095C202916D0282844D0EE
:104A500029284ED02E2856D069287DD0BC4ADAF8B5
:104A6000041000263746515C2B2976D02D2975D0AD
:104A70002A2974D02F2973D0F0E00026374614E09D
:104A8000641CFBF74AFD804689460022B14B304644
:104A90003946FBF739FC42464B46FBF78EFB0022BA
:104AA000AD4BFBF72BFC06460F462846FBF775FB84
:104AB000A04205D902980168285D095C2029DFD051
:104AC000DAF800100022491CCAF800100BEB0111A3
:104AD000C1E90222C1E900674AE0DAF804209C49F2
:104AE000521CCAF804208854FBE000BFFFF722FFE5
:104AF00001E0974F56467068385C2828F6D17068F8
:104B0000401E7060EDE04FF0FF36641C1FE030384F
:104B1000641CFBF7F1FC074688463046FBF7ECFCCB
:104B20000B46024600208B4900F0BAFF43463A4646
:104B3000FBF7EAFB864BDAF80820683303EBC20781
:104B4000D7E90023FBF739FBC7E90001761E2846A9
:104B5000FBF723FBA04204E00CE078E079E07AE088
:104B60007BE005D902980168285D095C2029CED038
:104B7000641EB6E00021CDE90011DAF80000894694
:104B80000F4600280BDB0BEB0012401ECAF800009A
:104B9000D2E90101D2F80C901768CDE90001029822
:104BA0002919006811F8011C405C20281ED0DFF88C
:104BB000AC8100260022494613460198FBF7BAFC57
:104BC00026D0DAF80000DDE90012401C0BEB001CD7
:104BD000401C4CF8047B8CE80602CAF800000BEB82
:104BE0000010C0E90089C0E902687AE0DAF8000044
:104BF000DDF800800BEB0012401ECAF80000D2E97D
:104C000001013E46D2F80C901768CDE90001D1E7CA
:104C10004F4ADAF804005146125C2D2A02D02A2AA3
:104C200003D009E088F0004804E03E460027DDF8A4
:104C300000800097401E48600A68521CCAF8002095
:104C40000BEB0212009980C282E8420149E0012682
:104C500004E0022602E0032600E004262B2806D00A
:104C60002D2806D02A2806D02F2806D006E00127B6
:104C700004E0022702E0032700E004279146D04623
:104C8000D8F80410002924DB30480C3050F82630C6
:104C900050F8270083421CDB285D5E2819D019F8E4
:104CA0000100282815D0FFF745FED8F8040019F8B0
:104CB00000002B2807D02D2807D02A2807D02F281E
:104CC000DED10426DCE70126DAE70226D8E7032650
:104CD000D6E7D8F804102A5D491CC8F8041009F872
:104CE0000120641C2846FBF758FAA0423FF6A6AE06
:104CF0004FEA0A08D8F80400401C02D0FFF71AFE59
:104D0000F8E7D8F800000BEB0011401E91E8F00026
:104D1000C8F800004FF0FF30C8F808004FF4C8682A
:104D200041460948FBF722FA41460948FBF71EFABB
:104D3000074841466830FBF719FA039880E8F0000D
:104D400005B0BDE8F08F0000C00A0020C4010020BB
:104D50000011002000002440000048400000F03F07
:104D600000B5244B21F0004287B09A42DCBF0022FC
:104D7000134629DD204B9A4208D140B94FF001007B
:104D8000FEF79CF9FEF775F907B000BD03DBFEF7EF
:104D90006BF907B000BD02AAFDF712FD10F0030188
:104DA00004BF0DF1080C9CE80F000DD00120012973
:104DB0000ED0022914D00DF1080C00909CE80F00D1
:104DC000FDF796FF07B000BDFDF7BEFE07B000BDC2
:104DD0000DF1080C00909CE80F00FDF789FF05E03D
:104DE0000DF1080C9CE80F00FDF7AEFE07B081F056
:104DF000004100BDFB21E93F0000F07F0FB400221D
:104E00002DE9F04F87B04FF0804ADDE91841DDE928
:104E100016980D4653462046DDF850B000F040FE8F
:104E200006460F46484641460022534600F038FEEB
:104E300032463B46FBF7C1F90F46064602463B4663
:104E400058461599FBF7D2FA82468B46DDE91201E6
:104E500032463B46FBF7CAFA0B4685F00041CDE9E6
:104E60000441CDE902980246CDE900AB109800F06C
:104E7000DEFD07B0BDE8F00F5DF814FB2DE9F04D45
:104E8000894BCE0F21F0004784B005460C469F4267
:104E900030D38648874211D3C7F31300284305D087
:104EA00004B02846BDE8F04DFEF7DEB8002E1ABF6C
:104EB00000200146284604B0BDE8F08D7C4A284613
:104EC000FBF750FB07D20220FEF7F8F804B0BDE86C
:104ED000F04DFEF7D4B8774A774B28462146FBF7CA
:104EE00029FB07D20220FEF7E9F804B0BDE8F04D37
:104EF000FEF7CCB87148B84248D27148874215D203
:104F00007048784400EBC6002146D0E900232846CB
:104F1000FBF7F4F9CDE900016B48784400EBC600DB
:104F2000D0E900ABC6F10100861B26E0674A684B5A
:104F300028462146FBF7E8F9664A7A4402EBC603A5
:104F4000D3E90023FBF739F9FBF788FC0646FBF7AA
:104F5000D3FA07468846604A604BFBF7D5F92A46E4
:104F60002346FBF7CEF9CDE900015D4A5D4B38469B
:104F70004146FBF7C9F982468B46DDE900015246FE
:104F80005B46FBF7BBF905460C4618E056488742DE
:104F900014D2564A564B28462146FBF70EF9554E79
:104FA00000223346FBF7DEFA08D204B03346284627
:104FB0002146BDE8F04D0022FBF7FFB800262A4647
:104FC000234610461946FBF79FF9804602464A4899
:104FD0000F460B4605217844FDF734FE42463B461A
:104FE000FBF792F92A462346FBF78BF907468846DA
:104FF000E6B302460B4600204FF08041FBF77EF9F6
:10500000CDE902013A46434628462146FBF77CF9A2
:10501000DDE90223FBF7EAF952465B46FBF771F93B
:10502000DDE90023FBF76AF90022324BFBF769F94F
:105030006FF47F729642A2BF01EB065104B0BDE847
:10504000F08D4FF07A5202EB065211442B4AFBF7D7
:105050003CFA04460D46FDF78FFB042808BFFEF717
:1050600015F8204604B02946BDE8F08DFFE7002280
:105070004FF08043FBF742F982460E463A464346DC
:1050800028462146FBF740F952463346FBF7AEF976
:105090002A462346FBF732F904B00022BDE8F04D62
:1050A000144BFBF72EB90000422E86400000F07F23
:1050B000EF39FAFE51302DD5104987C0422ED63F28
:1050C000B2A2F03FC25C0000BA5C0000FE822B6519
:1050D0004715F73F7A5C00000000E0FE422EE63FF5
:1050E000763C7935EF39EA3D0000303E9C7500880A
:1050F0003CE4377E0000F03F0E5C000018FCFFFF30
:1051000070B5104E04460D4600223346FBF712FAE6
:1051100006D00022334620462946FBF70BFA02D27E
:105120000020314670BD0022334620462946FBF759
:10513000E5F8FFF7E5FF22462B46BDE87040FBF798
:10514000E3B800000000F03F13B54FF6FF730122F3
:1051500069460248FCF770FE00981CBD7C0A0020DE
:10516000026809688A4202DDA2F1010202E005DA62
:1051700002F1010202604FF0010070474FF00000A1
:1051800070472B2809D02D2807D02A2805D02F2892
:1051900003D05E2801D00020704701207047000036
:1051A00070B50A4D0024204603F076FE01462046E5
:1051B000FCF79EFEFCF736F805EBC401486045F8A5
:1051C0003400641C022CEEDB70BD0000D00900200E
:1051D0002DE9F047DFF8B0904FF48078414648461B
:1051E000FCF720F8294D2A4F2A4E2B4C00B3DFF84C
:1051F000AC8004214046FCF715F800283AD1052080
:10520000FBF70EFFB06970B30020B0614646042181
:105210003046FCF707F80028F9D00520FBF700FF1F
:1052200028688038286038680028206826D027E061
:105230000520FBF7F5FE306998B1002030614E463D
:1052400041463046FBF7EEFF0028F9D00520FBF77A
:10525000E7FE28688030286038680028206803D07E
:1052600004E00120EAE707E0401E2060002800DAA1
:1052700000202060BDE8F0870120C6E7401C2060C8
:105280000428F6DD0420F4E7001001403C01002072
:10529000CC00002028000020300100200014014034
:1052A0002DE9F05F01218E48FBF7BCFF8D4EDFF842
:1052B0003892DFF838A2DFF838B28E4D8E4FDFF823
:1052C0003C828F4C012834D04FF400718D48FBF79D
:1052D000A9FF002856D10520FBF7A2FE606900282F
:1052E00076D00020C4F814004FF400718548FBF715
:1052F00099FF0028F8D00520FBF792FE824800684D
:10530000022870D003286FD0032220286DD02128D6
:105310006CD022286BD01A286AD01D28FCD0052812
:1053200030D17A480168491C91FBF2F302FB13115A
:1053300067E00520FBF774FEE06828B30020E0601A
:1053400001216748FBF76EFF0128F9D00520FBF724
:1053500067FE6D480068022818D003282CD020284A
:1053600037D0212845D022284DD01A2855D01D28C5
:1053700053D0052806D165490868401E086000D54D
:1053800002200860BDE8F09F0120D8E760490A6864
:10539000002A07DD2868012804D130680A3030600F
:1053A0000B2028602868A2F101020A3828600A60F0
:1053B00000D500202860E5E7D8F80010491EC8F89D
:1053C000001038680A38386000D500203860D9E706
:1053D0002AE0D9F80000401EC9F8000000D50220DC
:1053E000C9F80000CEE721E042E053E05AE065E072
:1053F0006DE0DAF800105046491ECAF8001000D5DA
:1054000003210160BEE7DBF80000401ECBF800007E
:1054100000D50420CBF80000B4E7A0680A38A060EB
:105420001428AFDA1E2058E001205BE72A683849CB
:105430000A322A6008680A23092806DA3D2A0AD1B6
:1054400032680A3A3260332204E004D13D2A02D1A4
:10545000012233602A60401C90FBF3F203FB120030
:10546000086028683E2190FBF1F201FB1200A1E7E1
:10547000D8F80000401CC8F800003A680A323A60C8
:105480001E2A00DD1E223A60032800DD0320C8F832
:10549000000077E7D9F80000401C90FBF2F302FB14
:1054A00013009DE7DAF80000401CC21700EB92726F
:1054B00022F00302801ACAF8000063E7DBF800005C
:1054C0000522401C90FBF2F302FB1300A2E7A06848
:1054D0000A30A0601E2885DD1420A06052E700007D
:1054E00000080140B80000205001002054010020B5
:1054F00058010020B4010020BC010020C800002099
:105500002800002000100140CC000020680100208D
:10551000C40000202DE9F04DC84A002490B091420B
:1055200005DA21F00043934201D805D120B110B033
:10553000BDE8F04DFDF798BDB1F5801F1BDA53EAC9
:10554000000209D0002911DA0120FDF7B7FD10B0E3
:10555000BDE8F04DFDF78DBD0220FDF7AFFDFDF775
:105560007BFD10B081F00041BDE8F08D6FF0350497
:105570003622FAF7AAFF04EB2152C1F31308B0490F
:10558000A2F2FF33414401F4801282F07F6103EB09
:10559000225281F04051009241EA08010022A94BB9
:1055A000FAF7ACFE044608F10200A74EC0F3130060
:1055B0000D467E44032867D2D6E900232046FAF739
:1055C000B9FF1ED10098002802BFD6E9000110B033
:1055D000BDE8F08DFAF790FF07460C469B4A9C4BBE
:1055E000FAF792FE06460D469A4A9B4B38462146EC
:1055F000FAF78AFE10B032462B46BDE8F04DFAF7B6
:10560000DCBD4FF05532954B20462946FAF77CFE1B
:105610000022934BFAF775FE06460F4622462B46AC
:1056200010461946FAF770FE32463B46FAF76CFE12
:10563000064600980F46F0B1FAF75EFF80468A46AC
:10564000824A834BFAF760FE32463B46FAF759FE30
:1056500022462B46FAF752FE05460C467D4A7E4B03
:1056600040465146FAF750FE10B02A462346BDE8A0
:10567000F04DFAF743BE0B4610B03246204629469D
:10568000BDE8F04DFAF73ABE00224FF080432046C5
:10569000FAF793FD02460B4620462946FAF7A6FE86
:1056A00006460F460098FAF727FFCDE90401324677
:1056B0003B4610463946FAF727FE0C9069480C9A8B
:1056C0004044019009910B461046FAF71DFE8246B0
:1056D000024665488B46C8F151080B4608F5D728A5
:1056E00003217844FDF7AEFA52465B46FAF70CFE0A
:1056F0000A905E480D9152465B4604217844FDF7BE
:10570000A1FA099B0C9AFAF7FFFD844601980D9BBC
:1057100040EA080860460A9AFAF74FFD8346089166
:10572000B8F1000F4EDD4FF0FF3220462946FAF760
:10573000CCFE22462B46FAF7E7FD804600988A46C3
:1057400060B3DDE90401414A414BFAF7DDFD0991FF
:1057500000905A4640465146089BFAF72EFD3246C5
:105760003B46FAF7D1FD099B009AFAF726FD42461F
:105770005346FAF7C6FD22462B46FAF7BFFD04460C
:105780000D46DDE90401334A334BFAF7BDFD10B095
:1057900022462B46BDE8F04DFAF7B0BD5A464046CA
:1057A000089BFAF70AFD32463B46FAF7ADFD424642
:1057B0005346FAF7A6FD10B022462B46BDE8F04D41
:1057C000FAF79FBD009840B3DDE904011F4A204B62
:1057D000FAF79AFD80468A465A4620462946089B93
:1057E000FAF78CFD32463B46FAF78EFD42465346A9
:1057F000FAF784FD22462B46FAF780FD04460D4653
:10580000DDE90401134A144BFAF77EFD10B022467D
:105810002B46BDE8F04DFAF771BD0B465A462046BF
:105820002946FAF76BFD32463B46FAF76DFD10B09C
:1058300022462B46BDE8F04DFAF763BD0000F07F2D
:10584000645F09000000F03FD2570000763C7935D4
:10585000EF39EA3D0000E0FE422EE63F5555D53FC8
:105860000000E03F86EBF9FF2A55000028550000B4
:105870002DE9F04105460E4610461946FFF74AFE4F
:1058800007460C4628463146FFF744FE3A46234673
:10589000BDE8F041FAF7AABDA6B0FBF7DBFCFCF7C8
:1058A00006FEFCF74DFBFCF735FBFCF7F9FBFCF7BC
:1058B000D3FB4AA0FCF73CFF012291024948FBF7C9
:1058C000B6FC684603F0F6FA4749684603F0BFFCA9
:1058D000684603F005FBFFF763FC4448A0F11C0495
:1058E000216800EBC1014968C9002161E16061687C
:1058F00000EBC1004068C000A0616061684603F031
:1059000053FCA068242862D2DFE800F012161A4681
:105910005A5E616161616161616161616161616181
:105920001E22262A2E32363A3E4261614A4E525695
:10593000684601F0BBFE4AE0684600F09DFD46E087
:10594000684601F0B7FC42E0684602F06DFA3EE0BE
:10595000684602F0F7FA3AE0684602F081FB36E06A
:10596000684602F00BFC32E0684602F095FC2EE03F
:10597000684602F01FFD2AE0684602F0A9FD26E015
:10598000684602F077FE22E0684602F0FFFE1EE065
:10599000684602F087FF1AE0684601F0F9FB16E05E
:1059A000684601F0FDFE12E0684601F0B9F80EE02D
:1059B000684602F0B5F80AE0684601F00DFD06E021
:1059C000684600F05FFF02E0684601F0F5F96846BE
:1059D00003F010FC002894D190E700006E6D736C0A
:1059E00000000000000C014054A10008E00000206D
:1059F0002DE9F04782460BA8194690E83800DDE90A
:105A0000099610463246DDF82080FAF777FC064604
:105A10000F4622462B4640464946FAF76FFCCAF825
:105A20000060CAE90170CAF80C10BDE8F0870FB435
:105A30002DE9FC5F12AE9B4696E80303DDE91045B5
:105A400082460F461646FAF75FFCCDE90001424652
:105A50004B4629462046FAF757FCDDE90023FAF7C2
:105A600050FCCDE9000122462B4650463946FAF754
:105A70004BFC04460D4642464B4630465946FAF723
:105A800043FC22462B46FAF798FB02460B46DDE91B
:105A900000010C9C84E80F00BDE8FC1F5DF814FBBE
:105AA0002DE9F04D1D460C4698B0174621F00041F7
:105AB00023F00043002814BF4FF0010C4FF0000CFE
:105AC0000CEB440CFE4A0CEB02064FEA620C6645F6
:105AD0002BD33E0018BF012606EB45061644F94AB3
